:020000040000FA
:100000000C9453000C9482040C945B040C947B00BD
:100010000C947B000C947B000C947B000C947B0074
:100020000C947B000C947B000C947B000C947B0064
:100030000C947B000C947B000C947B000C947B0054
:100040000C9411040C947B000C94DF030C94B90302
:100050000C947B000C947B000C947B000C947B0034
:100060000C947B000C947B0000000000250028000D
:100070002B0000000000240027002A0004040404D0
:100080000404040402020202020203030303030342
:10009000010204081020408001020408102001021F
:1000A00004081020500511241FBECFEFD8E0DEBF9A
:1000B000CDBF11E0A0E0B1E0E4EDFFE002C00590AB
:1000C0000D92A434B107D9F722E0A4E4B1E001C055
:1000D0001D92A233B207E1F710E0C3E5D0E004C0FF
:1000E0002197FE010E94E207C235D107C9F70E949D
:1000F000A9040C94E8070C940000AF92BF92CF9231
:10010000DF92EF92FF920F931F93CF93DF936C01D7
:100110007B018B01040F151FEB015E01AE18BF08B8
:10012000C017D10759F06991D601ED91FC9101906A
:10013000F081E02DC6010995892B79F7C501DF9182
:10014000CF911F910F91FF90EF90DF90CF90BF90D4
:10015000AF900895FC01538D448D252F30E0842FFE
:1001600090E0821B930B541710F0CF9608950197DF
:100170000895FC01918D828D981761F0A28DAE0FCC
:10018000BF2FB11D5D968C91928D9F5F9F73928F53
:1001900090E008958FEF9FEF0895FC01918D828D7F
:1001A000981731F0828DE80FF11D858D90E008954C
:1001B0008FEF9FEF0895FC01918D228D892F90E0A4
:1001C000805C9F4F821B91098F739927089585E961
:1001D00091E00E94DB0021E0892B09F420E0822FCE
:1001E000089580E090E0892B29F00E94E7008111BA
:1001F0000C9400000895FC01A48DA80FB92FB11D27
:10020000A35ABF4F2C91848D90E001968F7399274C
:10021000848FA689B7892C93A089B1898C9183702A
:1002200080648C93938D848D981306C00288F38923
:10023000E02D80818F7D80830895EF92FF920F9350
:100240001F93CF93DF93EC0181E0888F9B8D8C8D82
:1002500098131AC0E889F989808185FF15C09FB776
:10026000F894EE89FF896083E889F9898081837039
:10027000806480839FBF81E090E0DF91CF911F91E8
:100280000F91FF90EF900895F62E0B8D10E00F5F09
:100290001F4F0F731127E02E8C8D8E110CC00FB6DF
:1002A00007FCFACFE889F989808185FFF5CFCE0177
:1002B0000E94FB00F1CFEB8DEC0FFD2FF11DE35AF7
:1002C000FF4FF0829FB7F8940B8FEA89FB898081FA
:1002D0008062CFCFCF93DF93EC01888D8823B9F074
:1002E000AA89BB89E889F9898C9185FD03C0808141
:1002F00086FD0DC00FB607FCF7CF8C9185FFF2CFBE
:10030000808185FFEDCFCE010E94FB00E9CFDF9118
:10031000CF9108953FB7F894809191019091920107
:10032000A0919301B091940126B5A89B05C02F3FE1
:1003300019F00196A11DB11D3FBFBA2FA92F982F0B
:100340008827BC01CD01620F711D811D911D42E006
:10035000660F771F881F991F4A95D1F70895089552
:10036000CF92DF92EF92FF920F931F93CF93DF9381
:10037000C0918601D09187018E01000F111F0C5A88
:100380001E4FF80160817181072E000C880B990BBC
:100390000E9499069B01AC016091880170918901CE
:1003A00080918A0190918B010E947D056B017C01F7
:1003B00060915001709151018091520190915301CF
:1003C0000E946106F80171836083072E000C880B80
:1003D000990B0E949906A70196010E947E056093E1
:1003E00088017093890180938A0190938B012196F3
:1003F000C931D1059CF4D0938701C093860120E0D8
:1004000030E048EC51E40E94EF05DF91CF911F915D
:100410000F91FF90EF90DF90CF9008951092870199
:1004200010928601ECCF9093010180930001E9E6E0
:10043000F0E0808183608083E89A08950E948A01B9
:1004400060934C0170934D0180934E0190934F0146
:1004500087E493E00C941302FC0101900020E9F77B
:100460003197AF01481B590BBC0185E991E00C9411
:100470007D008F929F92AF92BF920F931F93CF9365
:10048000DF93CDB7DEB7A1970FB6F894DEBF0FBEEE
:10049000CDBF19A2423008F44AE08E010F5D1F4F14
:1004A000842E912CB12CA12CA50194010E94C0078F
:1004B000E62FB901CA01EA30F4F4E05DD801EE9309
:1004C0008D01232B242B252B79F790E080E01097CA
:1004D00019F0CD010E942C02A1960FB6F894DEBF50
:1004E0000FBECDBFDF91CF911F910F91BF90AF9005
:1004F0009F908F900895E95CE1CF4F925F926F9249
:100500007F928F929F92AF92BF92CF92DF92EF92A3
:10051000FF926B017C01AC019B010E94BB07882309
:10052000C1F086E191E00E942C027C0182E291E020
:100530000E942C028E0D9F1DFF90EF90DF90CF90B8
:10054000BF90AF909F908F907F906F905F904F90F3
:10055000089546015701E894B7F82FEF3FEF4FE7B2
:100560005FE7C501B4010E94BB0781110DC02FEFE9
:100570003FEF4FE75FE7C501B4010E94EA05181697
:100580001CF48AE191E0CFCF2FEF3FEF4FE75FE41C
:10059000C701B6010E94490718161CF48EE191E0CC
:1005A000C2CF2FEF3FEF4FE75FECC701B6010E94CC
:1005B000EA0587FDF3CF20E030E0A901C701B601CD
:1005C0000E94EA05B12CA12C87FF0AC06DE285E9E3
:1005D00091E00E941D015C01F7FAF094F7F8F094A5
:1005E0002AE037ED43EA5BE3C701B6010E947E05CE
:1005F0002B013C010E9468066B017C010E9497065A
:100600009B01AC01C301B2010E947D052B013C019D
:100610004AE0C701B6010E9439027C01EA0CFB1CCA
:100620006EE285E991E00E941D01E80EF91E20E0CE
:1006300030E040E251E4C301B2010E944E072B01B9
:100640003C010E9468064B01B12CA12C4AE0C50177
:10065000B4010E943902E80EF91EC501B4010E94DE
:1006600097069B01AC01C301B2010E947D0520E009
:1006700030E040E251E40E944E070E94680690E09C
:1006800080E04AE00E943902E80EF91E4FCF0F9336
:100690001F930E948A0100914C0110914D012091FD
:1006A0004E0130914F01601B710B820B930B0E9426
:1006B000970660935001709351018093520190937B
:1006C000530185E291E00E942C020E94B0010E9439
:1006D0007D020E94B0019B01AC0160E070E080E807
:1006E0009FE30E94EF0520E034E244E759E40E94D2
:1006F0004E07609348017093490180934A0190939B
:100700004B018FE291E00E942C02609148017091B0
:10071000490180914A0190914B010E947D0220E0A5
:1007200030E040ED51E460914801709149018091C1
:100730004A0190914B010E944E07609344017093CF
:10074000450180934601909347018CE391E00E941C
:100750002C02609144017091450180914601909175
:1007600047010E947D028EE192E01F910F910C944F
:1007700013021F920F920FB60F9211242F933F93E3
:100780004F935F936F937F938F939F93AF93BF9399
:10079000EF93FF9385E991E00E94FB00FF91EF91B9
:1007A000BF91AF919F918F917F916F915F914F9189
:1007B0003F912F910F900FBE0F901F9018951F9291
:1007C0000F920FB60F9211242F938F939F93EF9355
:1007D000FF93E091A501F091A6018081E091AB012A
:1007E000F091AC0182FD1BC090818091AE018F5FC2
:1007F0008F732091AF01821741F0E091AE01F0E0DC
:10080000EB56FE4F958F8093AE01FF91EF919F9134
:100810008F912F910F900FBE0F901F901895808190
:10082000F4CF1F920F920FB60F9211242F933F9384
:100830008F939F93AF93BF9380918D0190918E0181
:10084000A0918F01B091900130918C0123E0230F92
:100850002D3758F50196A11DB11D20938C01809371
:100860008D0190938E01A0938F01B09390018091A0
:10087000910190919201A0919301B0919401019600
:10088000A11DB11D8093910190939201A0939301BA
:10089000B0939401BF91AF919F918F913F912F9110
:1008A0000F900FBE0F901F90189526E8230F029609
:1008B000A11DB11DD2CF1F920F920FB60F9211241E
:1008C0002F933F934F935F936F937F938F939F9358
:1008D000AF93BF93EF93FF93E0910201F091030177
:1008E0000995FF91EF91BF91AF919F918F917F916A
:1008F0006F915F914F913F912F910F900FBE0F908D
:100900001F9018951F920F920FB60F9211242F93DC
:100910003F934F935F936F937F938F939F93AF9387
:10092000BF93EF93FF93E0910001F09101010995CE
:10093000FF91EF91BF91AF919F918F917F916F91B7
:100940005F914F913F912F910F900FBE0F901F908D
:100950001895789484B5826084BD84B5816084BD27
:1009600085B5826085BD85B5816085BD80916E004D
:10097000816080936E00109281008091810082607E
:1009800080938100809181008160809381008091BB
:1009900080008160809380008091B10084608093AA
:1009A000B1008091B00081608093B00080917A00A6
:1009B000846080937A0080917A00826080937A00CC
:1009C00080917A00816080937A0080917A008068BB
:1009D00080937A001092C100E091A501F091A601E8
:1009E00082E08083E091A101F091A2011082E09168
:1009F000A301F091A40180E180831092AD01E09108
:100A0000A901F091AA0186E08083E091A701F0910D
:100A1000A801808180618083E091A701F091A80105
:100A2000808188608083E091A701F091A801808196
:100A300080688083E091A701F091A80180818F7D7B
:100A40008083E2E9F0E02491EEE7F0E084918823EE
:100A5000C1F090E0880F991FFC01EE58FF4FC5913F
:100A6000D491FC01E859FF4FA591B4919FB7F89438
:100A70008881E22FE0958E2388838C91E823EC9384
:100A80009FBF8EE192E00E941302C0E0D0E0209769
:100A9000F1F30E94E7008823D1F30E940000F7CF12
:100AA000E5E9F1E01382128288EE93E0A0E0B0E085
:100AB00084839583A683B78388E091E091838083C4
:100AC00085EC90E09587848784EC90E09787868713
:100AD00080EC90E0918B808B81EC90E0938B828B0B
:100AE00082EC90E0958B848B86EC90E0978B868BE4
:100AF000118E128E138E148E08955058BB27AA277C
:100B00000E9495050C940F070E94010738F00E947F
:100B1000080720F039F49F3F19F426F40C94FE06E0
:100B20000EF4E095E7FB0C94F806E92F0E942007ED
:100B300058F3BA17620773078407950720F079F412
:100B4000A6F50C9442070EF4E0950B2EBA2FA02DBB
:100B50000B01B90190010C01CA01A0011124FF276A
:100B6000591B99F0593F50F4503E68F11A16F04065
:100B7000A22F232F342F4427585FF3CF4695379564
:100B80002795A795F0405395C9F77EF41F16BA0B29
:100B9000620B730B840BBAF09150A1F0FF0FBB1FD7
:100BA000661F771F881FC2F70EC0BA0F621F731F20
:100BB000841F48F4879577956795B795F7959E3F7D
:100BC00008F0B0CF9395880F08F09927EE0F97950E
:100BD000879508950E94D40608F481E008950E9444
:100BE00003060C940F070E94080758F00E940107A3
:100BF00040F029F45F3F29F00C94F80651110C9451
:100C000043070C94FE060E94200768F39923B1F372
:100C1000552391F3951B550BBB27AA276217730722
:100C2000840738F09F5F5F4F220F331F441FAA1FB6
:100C3000A9F335D00E2E3AF0E0E832D09150504072
:100C4000E695001CCAF72BD0FE2F29D0660F771F20
:100C5000881FBB1F261737074807AB07B0E809F006
:100C6000BB0B802DBF01FF2793585F4F3AF09E3F8B
:100C7000510578F00C94F8060C9443075F3FE4F3B9
:100C8000983ED4F3869577956795B795F7959F5FCE
:100C9000C9F7880F911D9695879597F90895E1E01A
:100CA000660F771F881FBB1F621773078407BA0779
:100CB00020F0621B730B840BBA0BEE1F88F7E095D4
:100CC00008950E9468066894B1110C944307089532
:100CD0000E94280788F09F5798F0B92F9927B7519D
:100CE000B0F0E1F0660F771F881F991F1AF0BA95D0
:100CF000C9F714C0B13091F00E944207B1E00895E5
:100D00000C944207672F782F8827B85F39F0B93FD6
:100D1000CCF3869577956795B395D9F73EF4909582
:100D20008095709561957F4F8F4F9F4F0895E89400
:100D300009C097FB3EF490958095709561957F4F23
:100D40008F4F9F4F9923A9F0F92F96E9BB279395D1
:100D5000F695879577956795B795F111F8CFFAF4E1
:100D6000BB0F11F460FF1BC06F5F7F4F8F4F9F4F12
:100D700016C0882311F096E911C0772321F09EE870
:100D8000872F762F05C0662371F096E8862F70E0D6
:100D900060E02AF09A95660F771F881FDAF7880FB0
:100DA0009695879597F90895990F0008550FAA0B06
:100DB000E0E8FEEF16161706E807F907C0F012166E
:100DC0001306E407F50798F0621B730B840B950B71
:100DD00039F40A2661F0232B242B252B21F40895C6
:100DE0000A2609F4A140A6958FEF811D811D089563
:100DF00097F99F6780E870E060E008959FEF80ECCE
:100E0000089500240A941616170618060906089570
:100E100000240A9412161306140605060895092ED6
:100E20000394000C11F4882352F0BB0F40F4BF2B45
:100E300011F460FF04C06F5F7F4F8F4F9F4F089585
:100E400057FD9058440F551F59F05F3F71F047957B
:100E5000880F97FB991F61F09F3F79F08795089560
:100E6000121613061406551FF2CF4695F1DF08C07F
:100E7000161617061806991FF1CF8695710561059C
:100E800008940895E894BB2766277727CB0197F944
:100E900008950E94D40608F48FEF08950E94610718
:100EA0000C940F070E94010738F00E94080720F0F9
:100EB000952311F00C94F8060C94FE0611240C9462
:100EC00043070E94200770F3959FC1F3950F50E0F0
:100ED000551F629FF001729FBB27F00DB11D639FEC
:100EE000AA27F00DB11DAA1F649F6627B00DA11D92
:100EF000661F829F2227B00DA11D621F739FB00D38
:100F0000A11D621F839FA00D611D221F749F3327A7
:100F1000A00D611D231F849F600D211D822F762F40
:100F20006A2F11249F5750409AF0F1F088234AF01D
:100F3000EE0FFF1FBB1F661F771F881F9150504089
:100F4000A9F79E3F510580F00C94F8060C944307D6
:100F50005F3FE4F3983ED4F3869577956795B79510
:100F6000F795E7959F5FC1F7FE2B880F911D96952A
:100F7000879597F908950E94D406880B990B0895D8
:100F8000A1E21A2EAA1BBB1BFD010DC0AA1FBB1F8D
:100F9000EE1FFF1FA217B307E407F50720F0A21BFF
:100FA000B30BE40BF50B661F771F881F991F1A946C
:100FB00069F760957095809590959B01AC01BD0196
:100FC000CF010895EE0FFF1F0590F491E02D0994D5
:100FD000F894FFCFAF01AF01000000001D017D00BC
:100FE000AA006A01DB00B900CD006E616E00696E77
:100FF00066006F7666000D0A00506572696F6420A6
:101000003A20004672657175656E6379203A20005A
:0810100052504D203A2000006F
:107E0000112484B714BE81FFF0D085E080938100F7
:107E100082E08093C00088E18093C10086E0809377
:107E2000C20080E18093C4008EE0C9D0259A86E02C
:107E300020E33CEF91E0309385002093840096BBD3
:107E4000B09BFECF1D9AA8958150A9F7CC24DD24C4
:107E500088248394B5E0AB2EA1E19A2EF3E0BF2EE7
:107E6000A2D0813461F49FD0082FAFD0023811F036
:107E7000013811F484E001C083E08DD089C08234E0
:107E800011F484E103C0853419F485E0A6D080C0E4
:107E9000853579F488D0E82EFF2485D0082F10E0AE
:107EA000102F00270E291F29000F111F8ED06801E7
:107EB0006FC0863521F484E090D080E0DECF843638
:107EC00009F040C070D06FD0082F6DD080E0C81688
:107ED00080E7D80618F4F601B7BEE895C0E0D1E017
:107EE00062D089930C17E1F7F0E0CF16F0E7DF06D8
:107EF00018F0F601B7BEE89568D007B600FCFDCFD4
:107F0000A601A0E0B1E02C9130E011968C91119780
:107F100090E0982F8827822B932B1296FA010C0160
:107F200087BEE89511244E5F5F4FF1E0A038BF0790
:107F300051F7F601A7BEE89507B600FCFDCF97BE46
:107F4000E89526C08437B1F42ED02DD0F82E2BD052
:107F50003CD0F601EF2C8F010F5F1F4F84911BD097
:107F6000EA94F801C1F70894C11CD11CFA94CF0C13
:107F7000D11C0EC0853739F428D08EE10CD085E9AC
:107F80000AD08FE07ACF813511F488E018D01DD067
:107F900080E101D065CF982F8091C00085FFFCCF94
:107FA0009093C60008958091C00087FFFCCF809118
:107FB000C00084FD01C0A8958091C6000895E0E648
:107FC000F0E098E1908380830895EDDF803219F02E
:107FD00088E0F5DFFFCF84E1DECF1F93182FE3DFCA
:107FE0001150E9F7F2DF1F91089580E0E8DFEE27F6
:047FF000FF270994CA
:027FFE00040479
:00000001FF
